{
  "address": "0xCf7Ed3AccA5a467e9e704C703E8D87F634fB0Fc9",
  "abi": [
    {
      "anonymous": false,
      "inputs": [
        {
          "indexed": false,
          "internalType": "uint256",
          "name": "updatedValue",
          "type": "uint256"
        }
      ],
      "name": "UpdateValue",
      "type": "event"
    },
    {
      "inputs": [],
      "name": "getValue",
      "outputs": [
        {
          "internalType": "uint256",
          "name": "",
          "type": "uint256"
        }
      ],
      "stateMutability": "view",
      "type": "function"
    },
    {
      "inputs": [],
      "name": "increment",
      "outputs": [],
      "stateMutability": "nonpayable",
      "type": "function"
    },
    {
      "inputs": [
        {
          "internalType": "uint256",
          "name": "newValue",
          "type": "uint256"
        }
      ],
      "name": "setValue",
      "outputs": [],
      "stateMutability": "nonpayable",
      "type": "function"
    },
    {
      "inputs": [],
      "name": "version",
      "outputs": [
        {
          "internalType": "uint256",
          "name": "",
          "type": "uint256"
        }
      ],
      "stateMutability": "pure",
      "type": "function"
    }
  ],
  "transactionHash": "0xa3e6b96c3edba0e3c733757940d830f003a0cfada652dc92f3ec7d7a03f6ea94",
  "args": [],
  "numDeployments": 1,
  "solcInputHash": "97aeb46aab772d9752628d62a31fdc4e",
  "bytecode": "0x608060405234801561001057600080fd5b506102b5806100206000396000f3fe608060405234801561001057600080fd5b506004361061004c5760003560e01c8063209652551461005157806354fd4d501461006f578063552410771461008d578063d09de08a146100a9575b600080fd5b6100596100b3565b60405161006691906101b9565b60405180910390f35b6100776100bc565b60405161008491906101b9565b60405180910390f35b6100a760048036038101906100a2919061017d565b6100c5565b005b6100b1610114565b005b60008054905090565b60006002905090565b6002816100d291906101d4565b6000819055507f95b271809b8eaef8cde269cc1a8f9f19a80f05db399160fcf41bdf1b8bd8cad660005460405161010991906101b9565b60405180910390a150565b600260008082825461012691906101d4565b925050819055507f95b271809b8eaef8cde269cc1a8f9f19a80f05db399160fcf41bdf1b8bd8cad660005460405161015e91906101b9565b60405180910390a1565b60008135905061017781610268565b92915050565b60006020828403121561019357610192610263565b5b60006101a184828501610168565b91505092915050565b6101b38161022a565b82525050565b60006020820190506101ce60008301846101aa565b92915050565b60006101df8261022a565b91506101ea8361022a565b9250827fffffffffffffffffffffffffffffffffffffffffffffffffffffffffffffffff0382111561021f5761021e610234565b5b828201905092915050565b6000819050919050565b7f4e487b7100000000000000000000000000000000000000000000000000000000600052601160045260246000fd5b600080fd5b6102718161022a565b811461027c57600080fd5b5056fea264697066735822122093d7a705cd4404499fc7ac7f2f912e52e77ef0cadfa22944444625bc80f48f0564736f6c63430008070033",
  "devdoc": {
    "kind": "dev",
    "methods": {},
    "version": 1
  },
  "userdoc": {
    "kind": "user",
    "methods": {},
    "notice": "BoxV2 is a new implementation contract where we change the logic for valueWe will try to change implementation of a Proxy contract to this BoxV2",
    "version": 1
  },
  "storageLayout": {
    "storage": [
      {
        "astId": 44,
        "contract": "contracts/BoxV2.sol:BoxV2",
        "label": "value",
        "offset": 0,
        "slot": "0",
        "type": "t_uint256"
      }
    ],
    "types": {
      "t_uint256": {
        "encoding": "inplace",
        "label": "uint256",
        "numberOfBytes": "32"
      }
    }
  }
}